{
  "address": "0x8fB873e697a106e7Dd819547587AcAEf0840E835",
  "abi": [
    {
      "anonymous": false,
      "inputs": [
        {
          "indexed": false,
          "internalType": "uint256",
          "name": "requestId",
          "type": "uint256"
        },
        {
          "indexed": false,
          "internalType": "string",
          "name": "sourceCodeURL",
          "type": "string"
        },
        {
          "indexed": false,
          "internalType": "bytes",
          "name": "callbackFunctionSignature",
          "type": "bytes"
        }
      ],
      "name": "OracleRequest",
      "type": "event"
    },
    {
      "anonymous": false,
      "inputs": [
        {
          "indexed": false,
          "internalType": "uint256",
          "name": "requestId",
          "type": "uint256"
        },
        {
          "indexed": false,
          "internalType": "bytes",
          "name": "result",
          "type": "bytes"
        }
      ],
      "name": "OracleResponse",
      "type": "event"
    },
    {
      "inputs": [],
      "name": "currentRequestId",
      "outputs": [
        {
          "internalType": "uint256",
          "name": "",
          "type": "uint256"
        }
      ],
      "stateMutability": "view",
      "type": "function"
    },
    {
      "inputs": [
        {
          "internalType": "string",
          "name": "sourceCodeURL",
          "type": "string"
        },
        {
          "internalType": "bytes",
          "name": "callbackFunctionSignature",
          "type": "bytes"
        }
      ],
      "name": "registerSourceCode",
      "outputs": [
        {
          "internalType": "uint256",
          "name": "",
          "type": "uint256"
        }
      ],
      "stateMutability": "nonpayable",
      "type": "function"
    },
    {
      "inputs": [
        {
          "internalType": "uint256",
          "name": "",
          "type": "uint256"
        }
      ],
      "name": "requests",
      "outputs": [
        {
          "internalType": "uint256",
          "name": "requestId",
          "type": "uint256"
        },
        {
          "internalType": "address",
          "name": "requester",
          "type": "address"
        },
        {
          "internalType": "string",
          "name": "sourceCodeURL",
          "type": "string"
        },
        {
          "internalType": "bytes",
          "name": "callbackFunctionSignature",
          "type": "bytes"
        },
        {
          "internalType": "bool",
          "name": "isFulfilled",
          "type": "bool"
        }
      ],
      "stateMutability": "view",
      "type": "function"
    },
    {
      "inputs": [
        {
          "internalType": "uint256",
          "name": "requestId",
          "type": "uint256"
        },
        {
          "internalType": "bytes",
          "name": "result",
          "type": "bytes"
        }
      ],
      "name": "respondToRequest",
      "outputs": [],
      "stateMutability": "nonpayable",
      "type": "function"
    }
  ],
  "transactionHash": "0x17bbe10dde94f68e3244cc6f7a3832a28dc1df372579644bc122f956ff7f0f23",
  "args": [],
  "numDeployments": 2,
  "solcInputHash": "71286843b91fb8ef6e699a9d2555b143",
  "bytecode": "0x6080604052348015600f57600080fd5b506111658061001f6000396000f3fe608060405234801561001057600080fd5b506004361061004c5760003560e01c80635ae2bfdb1461005157806381d12c581461006f57806386819f54146100a357806392d76f5a146100d3575b600080fd5b6100596100ef565b6040516100669190610592565b60405180910390f35b610089600480360381019061008491906105ed565b6100f5565b60405161009a95949392919061075b565b60405180910390f35b6100bd60048036038101906100b89190610992565b610268565b6040516100ca9190610592565b60405180910390f35b6100ed60048036038101906100e89190610a0a565b6103bf565b005b60005481565b60016020528060005260406000206000915090508060000154908060010160009054906101000a900473ffffffffffffffffffffffffffffffffffffffff169080600201805461014490610a95565b80601f016020809104026020016040519081016040528092919081815260200182805461017090610a95565b80156101bd5780601f10610192576101008083540402835291602001916101bd565b820191906000526020600020905b8154815290600101906020018083116101a057829003601f168201915b5050505050908060030180546101d290610a95565b80601f01602080910402602001604051908101604052809291908181526020018280546101fe90610a95565b801561024b5780601f106102205761010080835404028352916020019161024b565b820191906000526020600020905b81548152906001019060200180831161022e57829003601f168201915b5050505050908060040160009054906101000a900460ff16905085565b600080600081548092919061027c90610af5565b91905055506040518060a0016040528060005481526020013373ffffffffffffffffffffffffffffffffffffffff1681526020018481526020018381526020016000151581525060016000805481526020019081526020016000206000820151816000015560208201518160010160006101000a81548173ffffffffffffffffffffffffffffffffffffffff021916908373ffffffffffffffffffffffffffffffffffffffff160217905550604082015181600201908161033d9190610ce9565b5060608201518160030190816103539190610e16565b5060808201518160040160006101000a81548160ff0219169083151502179055509050507fb9451806db5843c1630552a84a1ebf0057f23efc248e12725112c536a97ef39160005484846040516103ac93929190610ee8565b60405180910390a1600054905092915050565b60006001600084815260200190815260200160002090508060040160009054906101000a900460ff1615610428576040517f08c379a000000000000000000000000000000000000000000000000000000000815260040161041f90610f79565b60405180910390fd5b60018160040160006101000a81548160ff0219169083151502179055507f8d41ee015c9967874e88ff583f0c042979313c10bab99a7e6b88ab0aed492cad8383604051610476929190610f99565b60405180910390a160008160010160009054906101000a900473ffffffffffffffffffffffffffffffffffffffff1673ffffffffffffffffffffffffffffffffffffffff1682600301846040516020016104d1929190611088565b6040516020818303038152906040526040516104ed91906110ac565b6000604051808303816000865af19150503d806000811461052a576040519150601f19603f3d011682016040523d82523d6000602084013e61052f565b606091505b5050905080610573576040517f08c379a000000000000000000000000000000000000000000000000000000000815260040161056a9061110f565b60405180910390fd5b50505050565b6000819050919050565b61058c81610579565b82525050565b60006020820190506105a76000830184610583565b92915050565b6000604051905090565b600080fd5b600080fd5b6105ca81610579565b81146105d557600080fd5b50565b6000813590506105e7816105c1565b92915050565b600060208284031215610603576106026105b7565b5b6000610611848285016105d8565b91505092915050565b600073ffffffffffffffffffffffffffffffffffffffff82169050919050565b60006106458261061a565b9050919050565b6106558161063a565b82525050565b600081519050919050565b600082825260208201905092915050565b60005b8381101561069557808201518184015260208101905061067a565b60008484015250505050565b6000601f19601f8301169050919050565b60006106bd8261065b565b6106c78185610666565b93506106d7818560208601610677565b6106e0816106a1565b840191505092915050565b600081519050919050565b600082825260208201905092915050565b6000610712826106eb565b61071c81856106f6565b935061072c818560208601610677565b610735816106a1565b840191505092915050565b60008115159050919050565b61075581610740565b82525050565b600060a0820190506107706000830188610583565b61077d602083018761064c565b818103604083015261078f81866106b2565b905081810360608301526107a38185610707565b90506107b2608083018461074c565b9695505050505050565b600080fd5b600080fd5b7f4e487b7100000000000000000000000000000000000000000000000000000000600052604160045260246000fd5b6107fe826106a1565b810181811067ffffffffffffffff8211171561081d5761081c6107c6565b5b80604052505050565b60006108306105ad565b905061083c82826107f5565b919050565b600067ffffffffffffffff82111561085c5761085b6107c6565b5b610865826106a1565b9050602081019050919050565b82818337600083830152505050565b600061089461088f84610841565b610826565b9050828152602081018484840111156108b0576108af6107c1565b5b6108bb848285610872565b509392505050565b600082601f8301126108d8576108d76107bc565b5b81356108e8848260208601610881565b91505092915050565b600067ffffffffffffffff82111561090c5761090b6107c6565b5b610915826106a1565b9050602081019050919050565b6000610935610930846108f1565b610826565b905082815260208101848484011115610951576109506107c1565b5b61095c848285610872565b509392505050565b600082601f830112610979576109786107bc565b5b8135610989848260208601610922565b91505092915050565b600080604083850312156109a9576109a86105b7565b5b600083013567ffffffffffffffff8111156109c7576109c66105bc565b5b6109d3858286016108c3565b925050602083013567ffffffffffffffff8111156109f4576109f36105bc565b5b610a0085828601610964565b9150509250929050565b60008060408385031215610a2157610a206105b7565b5b6000610a2f858286016105d8565b925050602083013567ffffffffffffffff811115610a5057610a4f6105bc565b5b610a5c85828601610964565b9150509250929050565b7f4e487b7100000000000000000000000000000000000000000000000000000000600052602260045260246000fd5b60006002820490506001821680610aad57607f821691505b602082108103610ac057610abf610a66565b5b50919050565b7f4e487b7100000000000000000000000000000000000000000000000000000000600052601160045260246000fd5b6000610b0082610579565b91507fffffffffffffffffffffffffffffffffffffffffffffffffffffffffffffffff8203610b3257610b31610ac6565b5b600182019050919050565b60008190508160005260206000209050919050565b60006020601f8301049050919050565b600082821b905092915050565b600060088302610b9f7fffffffffffffffffffffffffffffffffffffffffffffffffffffffffffffffff82610b62565b610ba98683610b62565b95508019841693508086168417925050509392505050565b6000819050919050565b6000610be6610be1610bdc84610579565b610bc1565b610579565b9050919050565b6000819050919050565b610c0083610bcb565b610c14610c0c82610bed565b848454610b6f565b825550505050565b600090565b610c29610c1c565b610c34818484610bf7565b505050565b5b81811015610c5857610c4d600082610c21565b600181019050610c3a565b5050565b601f821115610c9d57610c6e81610b3d565b610c7784610b52565b81016020851015610c86578190505b610c9a610c9285610b52565b830182610c39565b50505b505050565b600082821c905092915050565b6000610cc060001984600802610ca2565b1980831691505092915050565b6000610cd98383610caf565b9150826002028217905092915050565b610cf28261065b565b67ffffffffffffffff811115610d0b57610d0a6107c6565b5b610d158254610a95565b610d20828285610c5c565b600060209050601f831160018114610d535760008415610d41578287015190505b610d4b8582610ccd565b865550610db3565b601f198416610d6186610b3d565b60005b82811015610d8957848901518255600182019150602085019450602081019050610d64565b86831015610da65784890151610da2601f891682610caf565b8355505b6001600288020188555050505b505050505050565b60008190508160005260206000209050919050565b601f821115610e1157610de281610dbb565b610deb84610b52565b81016020851015610dfa578190505b610e0e610e0685610b52565b830182610c39565b50505b505050565b610e1f826106eb565b67ffffffffffffffff811115610e3857610e376107c6565b5b610e428254610a95565b610e4d828285610dd0565b600060209050601f831160018114610e805760008415610e6e578287015190505b610e788582610ccd565b865550610ee0565b601f198416610e8e86610dbb565b60005b82811015610eb657848901518255600182019150602085019450602081019050610e91565b86831015610ed35784890151610ecf601f891682610caf565b8355505b6001600288020188555050505b505050505050565b6000606082019050610efd6000830186610583565b8181036020830152610f0f81856106b2565b90508181036040830152610f238184610707565b9050949350505050565b7f5265717565737420616c72656164792066756c66696c6c656400000000000000600082015250565b6000610f63601983610666565b9150610f6e82610f2d565b602082019050919050565b60006020820190508181036000830152610f9281610f56565b9050919050565b6000604082019050610fae6000830185610583565b8181036020830152610fc08184610707565b90509392505050565b600081905092915050565b60008154610fe181610a95565b610feb8186610fc9565b94506001821660008114611006576001811461101b5761104e565b60ff198316865281151582028601935061104e565b61102485610dbb565b60005b8381101561104657815481890152600182019150602081019050611027565b838801955050505b50505092915050565b6000611062826106eb565b61106c8185610fc9565b935061107c818560208601610677565b80840191505092915050565b60006110948285610fd4565b91506110a08284611057565b91508190509392505050565b60006110b88284611057565b915081905092915050565b7f43616c6c6261636b206661696c65640000000000000000000000000000000000600082015250565b60006110f9600f83610666565b9150611104826110c3565b602082019050919050565b60006020820190508181036000830152611128816110ec565b905091905056fea26469706673582212206799bb980b5a0cbbf23bf4e1a22a4519b1f7f3d1e299547c8c58eb0db430b8b864736f6c634300081b0033",
  "devdoc": {
    "kind": "dev",
    "methods": {},
    "version": 1
  },
  "userdoc": {
    "kind": "user",
    "methods": {},
    "version": 1
  },
  "storageLayout": {
    "storage": [
      {
        "astId": 857,
        "contract": "contracts/oracle.sol:GeneralizedOracle",
        "label": "currentRequestId",
        "offset": 0,
        "slot": "0",
        "type": "t_uint256"
      },
      {
        "astId": 862,
        "contract": "contracts/oracle.sol:GeneralizedOracle",
        "label": "requests",
        "offset": 0,
        "slot": "1",
        "type": "t_mapping(t_uint256,t_struct(Request)855_storage)"
      }
    ],
    "types": {
      "t_address": {
        "encoding": "inplace",
        "label": "address",
        "numberOfBytes": "20"
      },
      "t_bool": {
        "encoding": "inplace",
        "label": "bool",
        "numberOfBytes": "1"
      },
      "t_bytes_storage": {
        "encoding": "bytes",
        "label": "bytes",
        "numberOfBytes": "32"
      },
      "t_mapping(t_uint256,t_struct(Request)855_storage)": {
        "encoding": "mapping",
        "key": "t_uint256",
        "label": "mapping(uint256 => struct GeneralizedOracle.Request)",
        "numberOfBytes": "32",
        "value": "t_struct(Request)855_storage"
      },
      "t_string_storage": {
        "encoding": "bytes",
        "label": "string",
        "numberOfBytes": "32"
      },
      "t_struct(Request)855_storage": {
        "encoding": "inplace",
        "label": "struct GeneralizedOracle.Request",
        "members": [
          {
            "astId": 846,
            "contract": "contracts/oracle.sol:GeneralizedOracle",
            "label": "requestId",
            "offset": 0,
            "slot": "0",
            "type": "t_uint256"
          },
          {
            "astId": 848,
            "contract": "contracts/oracle.sol:GeneralizedOracle",
            "label": "requester",
            "offset": 0,
            "slot": "1",
            "type": "t_address"
          },
          {
            "astId": 850,
            "contract": "contracts/oracle.sol:GeneralizedOracle",
            "label": "sourceCodeURL",
            "offset": 0,
            "slot": "2",
            "type": "t_string_storage"
          },
          {
            "astId": 852,
            "contract": "contracts/oracle.sol:GeneralizedOracle",
            "label": "callbackFunctionSignature",
            "offset": 0,
            "slot": "3",
            "type": "t_bytes_storage"
          },
          {
            "astId": 854,
            "contract": "contracts/oracle.sol:GeneralizedOracle",
            "label": "isFulfilled",
            "offset": 0,
            "slot": "4",
            "type": "t_bool"
          }
        ],
        "numberOfBytes": "160"
      },
      "t_uint256": {
        "encoding": "inplace",
        "label": "uint256",
        "numberOfBytes": "32"
      }
    }
  }
}