{
  "address": "0x97363b585B6540038993Cc8D2443F902A7E3a69D",
  "abi": [
    {
      "inputs": [
        {
          "internalType": "address",
          "name": "_usdcTokenAddress",
          "type": "address"
        },
        {
          "internalType": "address",
          "name": "_oracleAddress",
          "type": "address"
        },
        {
          "internalType": "string",
          "name": "_question",
          "type": "string"
        },
        {
          "internalType": "string",
          "name": "_outcomeA",
          "type": "string"
        },
        {
          "internalType": "string",
          "name": "_outcomeB",
          "type": "string"
        }
      ],
      "stateMutability": "nonpayable",
      "type": "constructor"
    },
    {
      "anonymous": false,
      "inputs": [
        {
          "indexed": true,
          "internalType": "address",
          "name": "bettor",
          "type": "address"
        },
        {
          "indexed": false,
          "internalType": "string",
          "name": "outcome",
          "type": "string"
        },
        {
          "indexed": false,
          "internalType": "uint256",
          "name": "amount",
          "type": "uint256"
        }
      ],
      "name": "BetPlaced",
      "type": "event"
    },
    {
      "anonymous": false,
      "inputs": [
        {
          "indexed": false,
          "internalType": "string",
          "name": "correctOutcome",
          "type": "string"
        }
      ],
      "name": "MarketResolved",
      "type": "event"
    },
    {
      "anonymous": false,
      "inputs": [
        {
          "indexed": true,
          "internalType": "address",
          "name": "user",
          "type": "address"
        },
        {
          "indexed": false,
          "internalType": "uint256",
          "name": "amount",
          "type": "uint256"
        }
      ],
      "name": "WinningsWithdrawn",
      "type": "event"
    },
    {
      "inputs": [],
      "name": "admin",
      "outputs": [
        {
          "internalType": "address",
          "name": "",
          "type": "address"
        }
      ],
      "stateMutability": "view",
      "type": "function"
    },
    {
      "inputs": [],
      "name": "correctOutcome",
      "outputs": [
        {
          "internalType": "string",
          "name": "",
          "type": "string"
        }
      ],
      "stateMutability": "view",
      "type": "function"
    },
    {
      "inputs": [],
      "name": "getContractBalance",
      "outputs": [
        {
          "internalType": "uint256",
          "name": "",
          "type": "uint256"
        }
      ],
      "stateMutability": "view",
      "type": "function"
    },
    {
      "inputs": [],
      "name": "getEncodedCallback",
      "outputs": [
        {
          "internalType": "bytes",
          "name": "",
          "type": "bytes"
        }
      ],
      "stateMutability": "pure",
      "type": "function"
    },
    {
      "inputs": [],
      "name": "marketQuestion",
      "outputs": [
        {
          "internalType": "string",
          "name": "",
          "type": "string"
        }
      ],
      "stateMutability": "view",
      "type": "function"
    },
    {
      "inputs": [],
      "name": "marketResolved",
      "outputs": [
        {
          "internalType": "bool",
          "name": "",
          "type": "bool"
        }
      ],
      "stateMutability": "view",
      "type": "function"
    },
    {
      "inputs": [],
      "name": "oracleAddress",
      "outputs": [
        {
          "internalType": "address",
          "name": "",
          "type": "address"
        }
      ],
      "stateMutability": "view",
      "type": "function"
    },
    {
      "inputs": [
        {
          "internalType": "string",
          "name": "_correctOutcome",
          "type": "string"
        }
      ],
      "name": "oracleCallback",
      "outputs": [],
      "stateMutability": "nonpayable",
      "type": "function"
    },
    {
      "inputs": [],
      "name": "outcomeA",
      "outputs": [
        {
          "internalType": "string",
          "name": "name",
          "type": "string"
        },
        {
          "internalType": "uint256",
          "name": "totalBets",
          "type": "uint256"
        }
      ],
      "stateMutability": "view",
      "type": "function"
    },
    {
      "inputs": [],
      "name": "outcomeB",
      "outputs": [
        {
          "internalType": "string",
          "name": "name",
          "type": "string"
        },
        {
          "internalType": "uint256",
          "name": "totalBets",
          "type": "uint256"
        }
      ],
      "stateMutability": "view",
      "type": "function"
    },
    {
      "inputs": [
        {
          "internalType": "string",
          "name": "outcomeName",
          "type": "string"
        },
        {
          "internalType": "uint256",
          "name": "amount",
          "type": "uint256"
        }
      ],
      "name": "placeBet",
      "outputs": [],
      "stateMutability": "nonpayable",
      "type": "function"
    },
    {
      "inputs": [
        {
          "internalType": "address",
          "name": "_newOracle",
          "type": "address"
        }
      ],
      "name": "setOracleAddress",
      "outputs": [],
      "stateMutability": "nonpayable",
      "type": "function"
    },
    {
      "inputs": [],
      "name": "usdcToken",
      "outputs": [
        {
          "internalType": "contract IERC20",
          "name": "",
          "type": "address"
        }
      ],
      "stateMutability": "view",
      "type": "function"
    },
    {
      "inputs": [],
      "name": "withdrawWinnings",
      "outputs": [],
      "stateMutability": "nonpayable",
      "type": "function"
    }
  ],
  "transactionHash": "0x2a4d06fc6a3cdccb07cf2f8f64e57616a10e506f79859402cc51c9c721d2d476",
  "args": [
    "0x54d562B3a8b680F8a21D721d22f0BB58A3787555",
    "0x8fB873e697a106e7Dd819547587AcAEf0840E835",
    "Which team will win the match?",
    "Team A",
    "Team B"
  ],
  "numDeployments": 2,
  "solcInputHash": "71286843b91fb8ef6e699a9d2555b143",
  "bytecode": "0x608060405234801561001057600080fd5b5060405161254538038061254583398181016040528101906100329190610307565b336000806101000a81548173ffffffffffffffffffffffffffffffffffffffff021916908373ffffffffffffffffffffffffffffffffffffffff16021790555084600a60006101000a81548173ffffffffffffffffffffffffffffffffffffffff021916908373ffffffffffffffffffffffffffffffffffffffff16021790555083600160006101000a81548173ffffffffffffffffffffffffffffffffffffffff021916908373ffffffffffffffffffffffffffffffffffffffff160217905550826002908161010391906105f7565b50816004600001908161011691906105f7565b50806007600001908161012991906105f7565b5050505050506106c9565b6000604051905090565b600080fd5b600080fd5b600073ffffffffffffffffffffffffffffffffffffffff82169050919050565b600061017382610148565b9050919050565b61018381610168565b811461018e57600080fd5b50565b6000815190506101a08161017a565b92915050565b600080fd5b600080fd5b6000601f19601f8301169050919050565b7f4e487b7100000000000000000000000000000000000000000000000000000000600052604160045260246000fd5b6101f9826101b0565b810181811067ffffffffffffffff82111715610218576102176101c1565b5b80604052505050565b600061022b610134565b905061023782826101f0565b919050565b600067ffffffffffffffff821115610257576102566101c1565b5b610260826101b0565b9050602081019050919050565b60005b8381101561028b578082015181840152602081019050610270565b60008484015250505050565b60006102aa6102a58461023c565b610221565b9050828152602081018484840111156102c6576102c56101ab565b5b6102d184828561026d565b509392505050565b600082601f8301126102ee576102ed6101a6565b5b81516102fe848260208601610297565b91505092915050565b600080600080600060a086880312156103235761032261013e565b5b600061033188828901610191565b955050602061034288828901610191565b945050604086015167ffffffffffffffff81111561036357610362610143565b5b61036f888289016102d9565b935050606086015167ffffffffffffffff8111156103905761038f610143565b5b61039c888289016102d9565b925050608086015167ffffffffffffffff8111156103bd576103bc610143565b5b6103c9888289016102d9565b9150509295509295909350565b600081519050919050565b7f4e487b7100000000000000000000000000000000000000000000000000000000600052602260045260246000fd5b6000600282049050600182168061042857607f821691505b60208210810361043b5761043a6103e1565b5b50919050565b60008190508160005260206000209050919050565b60006020601f8301049050919050565b600082821b905092915050565b6000600883026104a37fffffffffffffffffffffffffffffffffffffffffffffffffffffffffffffffff82610466565b6104ad8683610466565b95508019841693508086168417925050509392505050565b6000819050919050565b6000819050919050565b60006104f46104ef6104ea846104c5565b6104cf565b6104c5565b9050919050565b6000819050919050565b61050e836104d9565b61052261051a826104fb565b848454610473565b825550505050565b600090565b61053761052a565b610542818484610505565b505050565b5b818110156105665761055b60008261052f565b600181019050610548565b5050565b601f8211156105ab5761057c81610441565b61058584610456565b81016020851015610594578190505b6105a86105a085610456565b830182610547565b50505b505050565b600082821c905092915050565b60006105ce600019846008026105b0565b1980831691505092915050565b60006105e783836105bd565b9150826002028217905092915050565b610600826103d6565b67ffffffffffffffff811115610619576106186101c1565b5b6106238254610410565b61062e82828561056a565b600060209050601f831160018114610661576000841561064f578287015190505b61065985826105db565b8655506106c1565b601f19841661066f86610441565b60005b8281101561069757848901518255600182019150602085019450602081019050610672565b868310156106b457848901516106b0601f8916826105bd565b8355505b6001600288020188555050505b505050505050565b611e6d806106d86000396000f3fe608060405234801561001057600080fd5b50600436106100ea5760003560e01c8063853fd4211161008c578063cc42e83a11610066578063cc42e83a14610218578063d76f2a1e14610222578063de161d161461023e578063f851a4401461025d576100ea565b8063853fd421146101be578063a8386f8d146101dc578063a89ae4ba146101fa576100ea565b80633c886230116100c85780633c886230146101475780634c69c00f146101655780635f1b0e73146101815780636f9fb98a146101a0576100ea565b8063066f69af146100ef5780630bfd3b8d1461010d57806311eac85514610129575b600080fd5b6100f761027b565b60405161010491906110c7565b60405180910390f35b61012760048036038101906101229190611232565b610309565b005b6101316104d9565b60405161013e91906112fa565b60405180910390f35b61014f6104ff565b60405161015c919061136a565b60405180910390f35b61017f600480360381019061017a91906113ca565b610589565b005b61018961065b565b604051610197929190611410565b60405180910390f35b6101a86106f5565b6040516101b59190611440565b60405180910390f35b6101c6610798565b6040516101d39190611476565b60405180910390f35b6101e46107ab565b6040516101f191906110c7565b60405180910390f35b610202610839565b60405161020f91906114a0565b60405180910390f35b61022061085f565b005b61023c600480360381019061023791906114e7565b610c2a565b005b610246610f57565b604051610254929190611410565b60405180910390f35b610265610ff1565b60405161027291906114a0565b60405180910390f35b6002805461028890611572565b80601f01602080910402602001604051908101604052809291908181526020018280546102b490611572565b80156103015780601f106102d657610100808354040283529160200191610301565b820191906000526020600020905b8154815290600101906020018083116102e457829003601f168201915b505050505081565b600160009054906101000a900473ffffffffffffffffffffffffffffffffffffffff1673ffffffffffffffffffffffffffffffffffffffff163373ffffffffffffffffffffffffffffffffffffffff1614610399576040517f08c379a0000000000000000000000000000000000000000000000000000000008152600401610390906115ef565b60405180910390fd5b600160149054906101000a900460ff16156103e9576040517f08c379a00000000000000000000000000000000000000000000000000000000081526004016103e09061165b565b60405180910390fd5b60046000016040516103fb919061171e565b60405180910390208180519060200120148061043657506007600001604051610424919061171e565b60405180910390208180519060200120145b610475576040517f08c379a000000000000000000000000000000000000000000000000000000000815260040161046c90611781565b60405180910390fd5b80600390816104849190611943565b5060018060146101000a81548160ff0219169083151502179055507fc3d033db4c188282e50854f680ad03336f762e2cd9f547083f6e981b5d6190ac816040516104ce91906110c7565b60405180910390a150565b600a60009054906101000a900473ffffffffffffffffffffffffffffffffffffffff1681565b60606040516024016040516020818303038152906040527f0bfd3b8d000000000000000000000000000000000000000000000000000000007bffffffffffffffffffffffffffffffffffffffffffffffffffffffff19166020820180517bffffffffffffffffffffffffffffffffffffffffffffffffffffffff8381831617835250505050905090565b60008054906101000a900473ffffffffffffffffffffffffffffffffffffffff1673ffffffffffffffffffffffffffffffffffffffff163373ffffffffffffffffffffffffffffffffffffffff1614610617576040517f08c379a000000000000000000000000000000000000000000000000000000000815260040161060e90611a87565b60405180910390fd5b80600160006101000a81548173ffffffffffffffffffffffffffffffffffffffff021916908373ffffffffffffffffffffffffffffffffffffffff16021790555050565b600480600001805461066c90611572565b80601f016020809104026020016040519081016040528092919081815260200182805461069890611572565b80156106e55780601f106106ba576101008083540402835291602001916106e5565b820191906000526020600020905b8154815290600101906020018083116106c857829003601f168201915b5050505050908060010154905082565b6000600a60009054906101000a900473ffffffffffffffffffffffffffffffffffffffff1673ffffffffffffffffffffffffffffffffffffffff166370a08231306040518263ffffffff1660e01b815260040161075291906114a0565b602060405180830381865afa15801561076f573d6000803e3d6000fd5b505050506040513d601f19601f820116820180604052508101906107939190611abc565b905090565b600160149054906101000a900460ff1681565b600380546107b890611572565b80601f01602080910402602001604051908101604052809291908181526020018280546107e490611572565b80156108315780601f1061080657610100808354040283529160200191610831565b820191906000526020600020905b81548152906001019060200180831161081457829003601f168201915b505050505081565b600160009054906101000a900473ffffffffffffffffffffffffffffffffffffffff1681565b600160149054906101000a900460ff166108ae576040517f08c379a00000000000000000000000000000000000000000000000000000000081526004016108a590611b35565b60405180910390fd5b600060046000016040516108c2919061171e565b604051809103902060036040516108d9919061171e565b604051809103902003610a11576000600460020160003373ffffffffffffffffffffffffffffffffffffffff1673ffffffffffffffffffffffffffffffffffffffff168152602001908152602001600020541161096b576040517f08c379a000000000000000000000000000000000000000000000000000000000815260040161096290611bc7565b60405180910390fd5b6109c2600460020160003373ffffffffffffffffffffffffffffffffffffffff1673ffffffffffffffffffffffffffffffffffffffff16815260200190815260200160002054600460010154600760010154611015565b90506000600460020160003373ffffffffffffffffffffffffffffffffffffffff1673ffffffffffffffffffffffffffffffffffffffff16815260200190815260200160002081905550610b38565b6000600760020160003373ffffffffffffffffffffffffffffffffffffffff1673ffffffffffffffffffffffffffffffffffffffff1681526020019081526020016000205411610a96576040517f08c379a0000000000000000000000000000000000000000000000000000000008152600401610a8d90611bc7565b60405180910390fd5b610aed600760020160003373ffffffffffffffffffffffffffffffffffffffff1673ffffffffffffffffffffffffffffffffffffffff16815260200190815260200160002054600760010154600460010154611015565b90506000600760020160003373ffffffffffffffffffffffffffffffffffffffff1673ffffffffffffffffffffffffffffffffffffffff168152602001908152602001600020819055505b600a60009054906101000a900473ffffffffffffffffffffffffffffffffffffffff1673ffffffffffffffffffffffffffffffffffffffff1663a9059cbb33836040518363ffffffff1660e01b8152600401610b95929190611be7565b6020604051808303816000875af1158015610bb4573d6000803e3d6000fd5b505050506040513d601f19601f82011682018060405250810190610bd89190611c3c565b503373ffffffffffffffffffffffffffffffffffffffff167f24215bbaf0832fa4d6ffef16dee3971d8b714921fef3ad63f793d578983c6dc282604051610c1f9190611440565b60405180910390a250565b600160149054906101000a900460ff1615610c7a576040517f08c379a0000000000000000000000000000000000000000000000000000000008152600401610c719061165b565b60405180910390fd5b60008111610cbd576040517f08c379a0000000000000000000000000000000000000000000000000000000008152600401610cb490611cdb565b60405180910390fd5b6004600001604051610ccf919061171e565b604051809103902082805190602001201480610d0a57506007600001604051610cf8919061171e565b60405180910390208280519060200120145b610d49576040517f08c379a0000000000000000000000000000000000000000000000000000000008152600401610d4090611781565b60405180910390fd5b600a60009054906101000a900473ffffffffffffffffffffffffffffffffffffffff1673ffffffffffffffffffffffffffffffffffffffff166323b872dd3330846040518463ffffffff1660e01b8152600401610da893929190611cfb565b6020604051808303816000875af1158015610dc7573d6000803e3d6000fd5b505050506040513d601f19601f82011682018060405250810190610deb9190611c3c565b506004600001604051610dfe919061171e565b6040518091039020828051906020012003610e8d5780600460020160003373ffffffffffffffffffffffffffffffffffffffff1673ffffffffffffffffffffffffffffffffffffffff1681526020019081526020016000206000828254610e659190611d61565b925050819055508060046001016000828254610e819190611d61565b92505081905550610f03565b80600760020160003373ffffffffffffffffffffffffffffffffffffffff1673ffffffffffffffffffffffffffffffffffffffff1681526020019081526020016000206000828254610edf9190611d61565b925050819055508060076001016000828254610efb9190611d61565b925050819055505b3373ffffffffffffffffffffffffffffffffffffffff167fed9e8d4ee7cb095e0673cd5e842e9fe8038df3e3d8b2f35cd251b1940ae6a1428383604051610f4b929190611410565b60405180910390a25050565b6007806000018054610f6890611572565b80601f0160208091040260200160405190810160405280929190818152602001828054610f9490611572565b8015610fe15780601f10610fb657610100808354040283529160200191610fe1565b820191906000526020600020905b815481529060010190602001808311610fc457829003601f168201915b5050505050908060010154905082565b60008054906101000a900473ffffffffffffffffffffffffffffffffffffffff1681565b60008282856110249190611d95565b61102e9190611e06565b90509392505050565b600081519050919050565b600082825260208201905092915050565b60005b83811015611071578082015181840152602081019050611056565b60008484015250505050565b6000601f19601f8301169050919050565b600061109982611037565b6110a38185611042565b93506110b3818560208601611053565b6110bc8161107d565b840191505092915050565b600060208201905081810360008301526110e1818461108e565b905092915050565b6000604051905090565b600080fd5b600080fd5b600080fd5b600080fd5b7f4e487b7100000000000000000000000000000000000000000000000000000000600052604160045260246000fd5b61113f8261107d565b810181811067ffffffffffffffff8211171561115e5761115d611107565b5b80604052505050565b60006111716110e9565b905061117d8282611136565b919050565b600067ffffffffffffffff82111561119d5761119c611107565b5b6111a68261107d565b9050602081019050919050565b82818337600083830152505050565b60006111d56111d084611182565b611167565b9050828152602081018484840111156111f1576111f0611102565b5b6111fc8482856111b3565b509392505050565b600082601f830112611219576112186110fd565b5b81356112298482602086016111c2565b91505092915050565b600060208284031215611248576112476110f3565b5b600082013567ffffffffffffffff811115611266576112656110f8565b5b61127284828501611204565b91505092915050565b600073ffffffffffffffffffffffffffffffffffffffff82169050919050565b6000819050919050565b60006112c06112bb6112b68461127b565b61129b565b61127b565b9050919050565b60006112d2826112a5565b9050919050565b60006112e4826112c7565b9050919050565b6112f4816112d9565b82525050565b600060208201905061130f60008301846112eb565b92915050565b600081519050919050565b600082825260208201905092915050565b600061133c82611315565b6113468185611320565b9350611356818560208601611053565b61135f8161107d565b840191505092915050565b600060208201905081810360008301526113848184611331565b905092915050565b60006113978261127b565b9050919050565b6113a78161138c565b81146113b257600080fd5b50565b6000813590506113c48161139e565b92915050565b6000602082840312156113e0576113df6110f3565b5b60006113ee848285016113b5565b91505092915050565b6000819050919050565b61140a816113f7565b82525050565b6000604082019050818103600083015261142a818561108e565b90506114396020830184611401565b9392505050565b60006020820190506114556000830184611401565b92915050565b60008115159050919050565b6114708161145b565b82525050565b600060208201905061148b6000830184611467565b92915050565b61149a8161138c565b82525050565b60006020820190506114b56000830184611491565b92915050565b6114c4816113f7565b81146114cf57600080fd5b50565b6000813590506114e1816114bb565b92915050565b600080604083850312156114fe576114fd6110f3565b5b600083013567ffffffffffffffff81111561151c5761151b6110f8565b5b61152885828601611204565b9250506020611539858286016114d2565b9150509250929050565b7f4e487b7100000000000000000000000000000000000000000000000000000000600052602260045260246000fd5b6000600282049050600182168061158a57607f821691505b60208210810361159d5761159c611543565b5b50919050565b7f556e617574686f72697a6564206f7261636c6500000000000000000000000000600082015250565b60006115d9601383611042565b91506115e4826115a3565b602082019050919050565b60006020820190508181036000830152611608816115cc565b9050919050565b7f4d61726b657420616c7265616479207265736f6c766564000000000000000000600082015250565b6000611645601783611042565b91506116508261160f565b602082019050919050565b6000602082019050818103600083015261167481611638565b9050919050565b600081905092915050565b60008190508160005260206000209050919050565b600081546116a881611572565b6116b2818661167b565b945060018216600081146116cd57600181146116e257611715565b60ff1983168652811515820286019350611715565b6116eb85611686565b60005b8381101561170d578154818901526001820191506020810190506116ee565b838801955050505b50505092915050565b600061172a828461169b565b915081905092915050565b7f496e76616c6964206f7574636f6d65206e616d65000000000000000000000000600082015250565b600061176b601483611042565b915061177682611735565b602082019050919050565b6000602082019050818103600083015261179a8161175e565b9050919050565b60008190508160005260206000209050919050565b60006020601f8301049050919050565b600082821b905092915050565b6000600883026118037fffffffffffffffffffffffffffffffffffffffffffffffffffffffffffffffff826117c6565b61180d86836117c6565b95508019841693508086168417925050509392505050565b600061184061183b611836846113f7565b61129b565b6113f7565b9050919050565b6000819050919050565b61185a83611825565b61186e61186682611847565b8484546117d3565b825550505050565b600090565b611883611876565b61188e818484611851565b505050565b5b818110156118b2576118a760008261187b565b600181019050611894565b5050565b601f8211156118f7576118c8816117a1565b6118d1846117b6565b810160208510156118e0578190505b6118f46118ec856117b6565b830182611893565b50505b505050565b600082821c905092915050565b600061191a600019846008026118fc565b1980831691505092915050565b60006119338383611909565b9150826002028217905092915050565b61194c82611037565b67ffffffffffffffff81111561196557611964611107565b5b61196f8254611572565b61197a8282856118b6565b600060209050601f8311600181146119ad576000841561199b578287015190505b6119a58582611927565b865550611a0d565b601f1984166119bb866117a1565b60005b828110156119e3578489015182556001820191506020850194506020810190506119be565b86831015611a0057848901516119fc601f891682611909565b8355505b6001600288020188555050505b505050505050565b7f4f6e6c792061646d696e2063616e20706572666f726d2074686973206163746960008201527f6f6e000000000000000000000000000000000000000000000000000000000000602082015250565b6000611a71602283611042565b9150611a7c82611a15565b604082019050919050565b60006020820190508181036000830152611aa081611a64565b9050919050565b600081519050611ab6816114bb565b92915050565b600060208284031215611ad257611ad16110f3565b5b6000611ae084828501611aa7565b91505092915050565b7f4d61726b6574206e6f74207265736f6c76656420796574000000000000000000600082015250565b6000611b1f601783611042565b9150611b2a82611ae9565b602082019050919050565b60006020820190508181036000830152611b4e81611b12565b9050919050565b7f4e6f206265747320706c61636564206f6e207468652077696e6e696e67206f7560008201527f74636f6d65000000000000000000000000000000000000000000000000000000602082015250565b6000611bb1602583611042565b9150611bbc82611b55565b604082019050919050565b60006020820190508181036000830152611be081611ba4565b9050919050565b6000604082019050611bfc6000830185611491565b611c096020830184611401565b9392505050565b611c198161145b565b8114611c2457600080fd5b50565b600081519050611c3681611c10565b92915050565b600060208284031215611c5257611c516110f3565b5b6000611c6084828501611c27565b91505092915050565b7f42657420616d6f756e74206d7573742062652067726561746572207468616e2060008201527f7a65726f00000000000000000000000000000000000000000000000000000000602082015250565b6000611cc5602483611042565b9150611cd082611c69565b604082019050919050565b60006020820190508181036000830152611cf481611cb8565b9050919050565b6000606082019050611d106000830186611491565b611d1d6020830185611491565b611d2a6040830184611401565b949350505050565b7f4e487b7100000000000000000000000000000000000000000000000000000000600052601160045260246000fd5b6000611d6c826113f7565b9150611d77836113f7565b9250828201905080821115611d8f57611d8e611d32565b5b92915050565b6000611da0826113f7565b9150611dab836113f7565b9250828202611db9816113f7565b91508282048414831517611dd057611dcf611d32565b5b5092915050565b7f4e487b7100000000000000000000000000000000000000000000000000000000600052601260045260246000fd5b6000611e11826113f7565b9150611e1c836113f7565b925082611e2c57611e2b611dd7565b5b82820490509291505056fea2646970667358221220499867d5000446aba8c0cab698d35200b047671d7f1c18af8a3bfe790495175864736f6c634300081b0033",
  "devdoc": {
    "kind": "dev",
    "methods": {},
    "version": 1
  },
  "userdoc": {
    "kind": "user",
    "methods": {},
    "version": 1
  },
  "storageLayout": {
    "storage": [
      {
        "astId": 994,
        "contract": "contracts/predictEarn.sol:PredictAndEarn",
        "label": "admin",
        "offset": 0,
        "slot": "0",
        "type": "t_address"
      },
      {
        "astId": 996,
        "contract": "contracts/predictEarn.sol:PredictAndEarn",
        "label": "oracleAddress",
        "offset": 0,
        "slot": "1",
        "type": "t_address"
      },
      {
        "astId": 998,
        "contract": "contracts/predictEarn.sol:PredictAndEarn",
        "label": "marketResolved",
        "offset": 20,
        "slot": "1",
        "type": "t_bool"
      },
      {
        "astId": 1000,
        "contract": "contracts/predictEarn.sol:PredictAndEarn",
        "label": "marketQuestion",
        "offset": 0,
        "slot": "2",
        "type": "t_string_storage"
      },
      {
        "astId": 1002,
        "contract": "contracts/predictEarn.sol:PredictAndEarn",
        "label": "correctOutcome",
        "offset": 0,
        "slot": "3",
        "type": "t_string_storage"
      },
      {
        "astId": 1014,
        "contract": "contracts/predictEarn.sol:PredictAndEarn",
        "label": "outcomeA",
        "offset": 0,
        "slot": "4",
        "type": "t_struct(Outcome)1011_storage"
      },
      {
        "astId": 1017,
        "contract": "contracts/predictEarn.sol:PredictAndEarn",
        "label": "outcomeB",
        "offset": 0,
        "slot": "7",
        "type": "t_struct(Outcome)1011_storage"
      },
      {
        "astId": 1020,
        "contract": "contracts/predictEarn.sol:PredictAndEarn",
        "label": "usdcToken",
        "offset": 0,
        "slot": "10",
        "type": "t_contract(IERC20)992"
      }
    ],
    "types": {
      "t_address": {
        "encoding": "inplace",
        "label": "address",
        "numberOfBytes": "20"
      },
      "t_bool": {
        "encoding": "inplace",
        "label": "bool",
        "numberOfBytes": "1"
      },
      "t_contract(IERC20)992": {
        "encoding": "inplace",
        "label": "contract IERC20",
        "numberOfBytes": "20"
      },
      "t_mapping(t_address,t_uint256)": {
        "encoding": "mapping",
        "key": "t_address",
        "label": "mapping(address => uint256)",
        "numberOfBytes": "32",
        "value": "t_uint256"
      },
      "t_string_storage": {
        "encoding": "bytes",
        "label": "string",
        "numberOfBytes": "32"
      },
      "t_struct(Outcome)1011_storage": {
        "encoding": "inplace",
        "label": "struct PredictAndEarn.Outcome",
        "members": [
          {
            "astId": 1004,
            "contract": "contracts/predictEarn.sol:PredictAndEarn",
            "label": "name",
            "offset": 0,
            "slot": "0",
            "type": "t_string_storage"
          },
          {
            "astId": 1006,
            "contract": "contracts/predictEarn.sol:PredictAndEarn",
            "label": "totalBets",
            "offset": 0,
            "slot": "1",
            "type": "t_uint256"
          },
          {
            "astId": 1010,
            "contract": "contracts/predictEarn.sol:PredictAndEarn",
            "label": "bets",
            "offset": 0,
            "slot": "2",
            "type": "t_mapping(t_address,t_uint256)"
          }
        ],
        "numberOfBytes": "96"
      },
      "t_uint256": {
        "encoding": "inplace",
        "label": "uint256",
        "numberOfBytes": "32"
      }
    }
  }
}